:020000040800F2
:10000000F8090020A90100081F180008751600084B
:100010001D180008B5020008251D0008000000009A
:10002000000000000000000000000000231800088D
:1000300069030008000000002118000825180008C6
:10004000C3010008C3010008C3010008C301000880
:10005000C3010008C3010008C3010008C301000870
:10006000C3010008C3010008C3010008C301000860
:10007000C3010008C3010008C3010008C301000850
:10008000C3010008C3010008C3010008000000000C
:10009000000000000000000000000000C301000894
:1000A000C3010008C3010008C3010008C301000820
:1000B000C3010008C3010008C3010008C301000810
:1000C000C3010008C3010008C3010008C301000800
:1000D000C3010008C3010008C301000800000000BC
:1000E000C3010008C3010008C301000800000000AC
:1000F000000000000000000000000000C301000834
:1001000000000000C3010008C3010008C30100088B
:1001100000000000000000000000000000000000DF
:10012000C3010008B9020008C3010008C3010008A8
:10013000C3010008000000000000000000000000F3
:10014000000000000000000000000000C3010008E3
:10015000C3010008C3010008C3010008C30100086F
:10016000C3010008C30100080000000000000000F7
:10017000000000000000000000000000000000007F
:1001800000000000C30100080000000000000000A3
:10019000C3010008DFF80CD000F07AF800480047EF
:1001A000451E0008F8090020064880470648004719
:1001B000FEE7FEE7FEE7FEE7FEE7FEE7FEE7FEE717
:1001C000FEE7FEE7BD180008950100082DE9F05F85
:1001D0000546002092469B468846064681464024B6
:1001E0001BE0284641464746224600F041F8534668
:1001F0005A46C01A914110D311461846224600F0C3
:1002000028F82D1A67EB01084F46224601200021ED
:1002100000F01FF817EB00094E41201EA4F1010465
:10022000DFDC484631462A464346BDE8F09FD2B25D
:1002300001E000F8012B491EFBD270470022F6E7CF
:1002400010B513460A4604461946FFF7F0FF20464C
:1002500010BD202A04DB203A00FA02F1002070478A
:100260009140C2F1200320FA03F3194390407047F4
:10027000202A04DB203A21FA02F00021704721FAFB
:1002800002F3D040C2F12002914008431946704762
:10029000064C074D06E0E06840F0010394E80700D3
:1002A00098471034AC42F6D3FFF778FF901E000851
:1002B000B01E0008FEE70000014800F06BB8000027
:1002C000CC00002001681823CAB2103AB2FBF3F246
:1002D000054B6FF30901032A9B5CC36500D9091D17
:1002E0008165084670470000701E000810B5014681
:1002F00000208B698A6A4FF0C07453B1B3F5005F78
:1003000015D072B1012A0CD0022A0AD0032A09D1D1
:1003100004E01AB1012A06D0022A03D1C96AC90130
:1003200000D5012010BDC96AA142FAD010BD002A33
:10033000F7D0012AF2D0022AF3D0032AF3D010BD5D
:1003400030B50468256825F480252560046863605D
:100350008368402B036803D099600068C26030BD99
:100360009A600068C16030BD704772B6FEE790F8D1
:100370003510022903D080214165012070470521F5
:1003800080F835100068016821F00101016000204B
:10039000704700002DE9F84304464FF00009CDF8FE
:1003A000009063484FF41651A56D0068B0FBF1F75B
:1003B0002E6894F85C10082000FA01F131420FD049
:1003C00021680A6852070BD50A6822F004020A6005
:1003D00094F85C108840A860606D40F00100606592
:1003E00094F85C104FF0010808FA01F0304208D090
:1003F00021684969090604D5A860606D40F00200D3
:10040000606594F85C1004208840304208D0216870
:100410000968890704D5A860606D40F00400606534
:1004200094F85C1010208840304218D02168096888
:10043000090714D5A86020680168490304D500683D
:10044000000308D5A16C07E00168C90503D4016861
:1004500021F008010160216C09B12046884794F819
:100460005C1020208840304231D021680968C906DC
:100470002DD5A86094F8350005282068016806D0BD
:10048000490347D5006800031DD4616C1CE021F0CE
:10049000160101602068416921F080014161206CF2
:1004A00008B9A06C20B12068016821F00801016042
:1004B00094F85C103F208840A86084F8358084F868
:1004C0003490216D1FE0E16B09B120468847606DD3
:1004D00000282BD0606DC00714D0052084F83500AB
:1004E0002068016821F0010101600098401C009023
:1004F000B84203D820680068C007F6D184F8358078
:1005000084F83490E16C002910D001B02046BDE899
:10051000F04308470168C905D5D4016821F01001EE
:10052000016084F8358084F83490CCE7BDE8F88326
:100530000C0000202DE9F041044600F09FF906462A
:100540005CB1022084F83500002584F8345020681E
:10055000016821F0010101600DE00120BDE8F0819A
:1005600000F08CF9801B052805D920206065032048
:1005700084F83500F2E720680068C007F0D12268EF
:10058000116820480140D4E901031843D4E9033637
:100590003343184363691843A3691843E369184355
:1005A000236A18430843616A042903D1D4E90B1371
:1005B00019430843106020684069666A20F007010B
:1005C00030460E43012704280CD1A06A0643E06A96
:1005D00040B12046FFF78AFE20B14020606584F8D4
:1005E0003570BAE7206846612046FFF76BFE94F845
:1005F0005C203F2191408160656584F83570002062
:10060000ACE700003F8010F02DE9F0410446866D14
:1006100090F83400002501280DD0012084F8340022
:1006200094F835700020012F07D084F8340002259B
:100630002846BDE8F0810220FBE7022784F83570E8
:1006400060652046FFF77CFE94F85C103F208840F0
:10065000B0602068016841F016010160206C20B193
:100660002068016841F0080101602068016841F0DC
:1006700001010160DCE7000070B5044600F0FEF8FF
:100680000546601C02D004480078044400F0F6F8E7
:10069000401BA042FAD370BD000000202DE9F84FA6
:1006A000DFF8B8A10022012403254FF00F090AF159
:1006B000040BAAF1040E00BF0B6804FA02F63340E3
:1006C000B34273D10F7907F00307012F01D0022F36
:1006D00016D187684FEA420805FA08FC27EA0C079A
:1006E000D1F80CC00CFA08FC4CEA070CC0F808C0A2
:1006F0004768B7430E79C6F3001696403E434660FE
:100700000E79F643B6070DD0C768560005FA06FC09
:1007100027EA0C07D1F808C00CFA06FC4CEA070CD3
:10072000C0F80CC00E7906F00306022E10D1D608D0
:1007300000EB8608D8F8206057074FEAD76C09FA13
:100740000CF7BE430F6907FA0CF73743C8F820705F
:1007500006684FEA420C05FA0CF7BE430F7907F022
:10076000030707FA0CF7374307604E6816F4403F5B
:100770006DD03B4E376847F480473760366822F0CB
:10078000030706F480460096364E07EB060CDCF8AD
:10079000086897073F0F09FA07F826EA0806DFF806
:1007A000C880404503D14FF000081EE04FE0DFF85D
:1007B000BC80404502D14FF0010816E0DFF8B08060
:1007C000404502D14FF002080FE0DFF8A880404515
:1007D00002D14FF0030808E0DFF89C80404502D1C9
:1007E0004FF0040801E04FF0070808FA07F848EA5C
:1007F0000608CCF80888DAF800605746D1F804C03B
:100800009E435FEACC2C00D51E433E60DBF80060BF
:100810005F46D1F804C09E435FEA8C2C00D51E438E
:100820003E60DEF800607746D1F804C09E435FEA80
:100830008C3C00D51E433E60084F083F3E68D1F80F
:1008400004C09E435FEACC3C00D51E433E60521C70
:10085000102AFFF431AFBDE8F88F0000083C0140DA
:1008600044380240003001400000024000040240D1
:1008700000080240000C024000100240014880685D
:10088000704700000000002002488168027811448F
:1008900081607047000000200B4810B5016841F4EA
:1008A00000710160016841F480610160016841F4F8
:1008B00080710160032000F06FF80F2000F006F84F
:1008C00000F024F8002010BD003C024070B50D4D32
:1008D00004464FF47A712878B1FBF0F00A490968B0
:1008E000B1FBF0F000F00CFB48B9102C07D200224D
:1008F0002146501E00F030F800206C6070BD0120D1
:1009000070BD0000000000200C0000200A4808B55F
:10091000016841F480410160006800F4804000906B
:100920000548001F016841F080510160006800F037
:100930008050009008BD000044380240002809DBC8
:1009400000F01F02012191404009800000F1E020E9
:10095000C0F8001170470000F0B40E4B1B680C4645
:10096000C3F30223C3F10705042D00D90425191D83
:10097000072901D2002300E0DB1E012606FA05F15B
:10098000491E214099409E40761E16403143F0BCDE
:1009900001F039BA0CED00E0064900F007020868E2
:1009A0004FF6FF03184040EA0220034A1043086054
:1009B000704700000CED00E00000FA052DE9F0475B
:1009C0000E46050065D0DFF81481D8F80000F7B2B4
:1009D00000F00700B04207D288F80070D8F8000095
:1009E00000F00700B04254D128683D4C810712D571
:1009F000400703D5206840F4E050206028780007C5
:100A000003D5206840F4604020602068A96820F089
:100A1000F000084320602878C0072DD0304968686E
:100A20000839012812D0022813D0032811D00968F0
:100A3000890700292DDA216821F003010143216093
:100A4000FFF71CFF814641F2883A0EE009688903EE
:100A5000EFE709688901ECE7FFF710FFA0EB090158
:100A6000514502D90320BDE8F0872068696800F08D
:100A70000C00B0EB810FEFD1D8F80010404601F028
:100A80000701B14207D90770006800F00700B042C3
:100A900001D00120E7E72878400705D52068E968FC
:100AA00020F4E050084320602878000706D520682D
:100AB000296920F4604040EAC100206000F038F865
:100AC0002168084AC1F30311515CC8400649086017
:100AD00006480068FFF7FAFE0020C4E7003C024029
:100AE00008380240781E00080C0000200400002096
:100AF0000448054900680968044AC1F38221515C31
:100B0000C84070470C00002008380240881E0008CA
:100B10000448054900680968044AC1F34231515C40
:100B2000C84070470C00002008380240881E0008AA
:100B3000154810B5006810F00C02144813D0144981
:100B4000042A0FD0082A0ED10F4C241F22682368D4
:100B500002F03F025B0207D52068C0F38810A0FBBB
:100B6000010106E0084610BD2168C1F38811A1FB10
:100B700000010023FFF72AFB2168C1F30141491C52
:100B80004900B0FBF1F010BD083802400024F40029
:100B900040787D012DE9F84F04006ED02078DFF811
:100BA0004C93C007A9F104054AD009F1040001687B
:100BB000C1F38101012908D00068C0F38100022837
:100BC0000AD1D9F80000400206D52868800337D53D
:100BD00060680028E1D033E06068B0F5803F10D055
:100BE000B0F5A02F286810D020F480302860286845
:100BF00020F4802028606068A8B1FFF73FFE064619
:100C00000DE0286840F48030F4E740F4802028604C
:100C1000F7E700BFFFF732FE801B642873D828680F
:100C20008003F7D50CE0FFF729FE064605E000BF7C
:100C3000FFF724FE801B6428F0D828688003F7D4CF
:100C40002078DFF8AC8280074FF0000A3ED5A74835
:100C5000001D016811F00C0F08D00068C0F381007E
:100C600002280BD1D9F80000400207D42868800779
:100C700016D5E068012800D112E033E1E068B8B190
:100C80000120C8F80000FFF7F9FD064605E000BFA7
:100C9000FFF7F4FD801B0228C0D828688007F7D52D
:100CA0002868216920F0F80040EAC10028600DE0C2
:100CB000C8F800A0FFF7E2FD064604E0FFF7DEFDFE
:100CC000801B02281FD828688007F7D420780007E7
:100CD00022D5864F87486169703771B10121016063
:100CE000FFF7CCFD064604E0FFF7C8FD801B022895
:100CF00009D838688007F7D50EE0C0F800A0FFF7E4
:100D0000BDFD064605E082E0FFF7B8FD801B022826
:100D10007DD838688007F7D42078400768D5DFF899
:100D2000CCB100270BF13C0BDBF80000C0000BD46A
:100D3000DBF8001041F08051CBF80010DBF8000028
:100D4000012700F0805000906B4E3068C00510D431
:100D5000306840F480703060FFF790FD009005E04F
:100D6000FFF78CFD0099401A022850D83068C00562
:100D7000F6D55E4EA0686C3601280FD00528306885
:100D800010D020F001003060306820F004003060A6
:100D9000A068B8B1FFF772FD00900FE0306840F036
:100DA0000100F4E740F004003060F7E7FFF766FD6C
:100DB0000099411A41F28830814266D83068800734
:100DC000F4D50EE0FFF75AFD009007E0FFF756FD5F
:100DD0000099411A41F28830814256D83068800724
:100DE000F4D42FB1DBF8001021F08051CBF80010C3
:100DF000A069C8B33D49091D0968C1F381010229F1
:100E00004AD00228504607D0C8F8600000E03CE015
:100E1000FFF734FD04463BE04746C8F86000FFF7A3
:100E20002DFD064605E000BFFFF728FD801B0228C8
:100E30002BD828688001F7D4D4E907010843A16AB8
:100E40002E4A490802EB0141626A41EA82110843D5
:100E500094F82C1040EA0161C9F8001001203866AE
:100E6000FFF70CFD044606E03EE000BFFFF706FD7D
:100E7000001B022809D828688001F7D534E000BF9C
:100E8000FFF7FCFC001B022802D90320BDE8F88F05
:100E900028688001F4D427E00128F7D0D9F80000B1
:100EA000E26900F4800191421CD1226A00F03F0106
:100EB000914217D147F6C071626A0140B1EB821FBF
:100EC00010D1A26A4FF0FF3300F4403103EB52021D
:100ED000B1EB024F06D194F82C1000F07060B0EB2B
:100EE000016F01D00120D1E70020CFE70438024094
:100EF00000004742800E4742007000400000FFFFA4
:100F000010B5401EB0F1807F01D3012010BD4FF01D
:100F1000E02460610F21601700F075FF0020A061E0
:100F200007202061002010BD10B590F83C20012A58
:100F300022D0012280F83C20CA688C6822F44072DA
:100F400022434C6822F4806222430C6822F400623F
:100F500022430C6922F4805222434C6922F400524D
:100F60002243C969002322F480420A4301684A648B
:100F700080F83C30002010BD022010BD70B590F804
:100F80003C20012A2CD0012480F83C40022280F829
:100F90003D2003685A689D6822F070060A68324353
:100FA0005A60104B02689A420ED0B2F1804F0BD0BB
:100FB0000D4B9A4208D00D4B9A4205D00C4B9A42E9
:100FC00002D00C4B9A4204D1496825F080031943A2
:100FD000916080F83D40002180F83C10084670BDCB
:100FE000022070BD000001400004004000080040E5
:100FF000000C00400040014010B5040003D094F8FC
:101000003D0010B107E0012010BD002084F83C0035
:10101000204600F01FF8022084F83D00211D2068C2
:1010200000F054FC012084F8460084F83E0084F867
:101030003F0084F8400084F8410084F8420084F8BE
:10104000430084F8440084F8450084F83D00002003
:1010500010BD000038B5054600681A4B00221A4939
:10106000984222D1086840F0010008600868184CD6
:1010700000F001000090154820604FF04060606073
:101080004020C4E90202000120618000606180000C
:10109000C4E90602226220466262FFF74BFA08B1F9
:1010A000FFF763F96C62A56338BD0A4A9042FBD131
:1010B000086840F480300860086800F480300090D0
:1010C00038BD00000000014044380240286402405E
:1010D000CC0000200040014070B5044690F83C0070
:1010E0000025012817D0012684F83C60022084F8EE
:1010F0003D002068826822F0770222F47F428260FD
:101100000868502838D00DDC20284FD005DC90B37B
:10111000102811D14AE0022070BD302846D0402866
:101120000AD13BE060282FD070280DD0B0F5805F49
:1011300003D0B0F5005F12D0012584F83D60002097
:1011400084F83C00284670BDCB68D1E901212068B5
:1011500000F08AFC2068816841F0770109E0CB68E3
:10116000D1E90121206800F07FFC2068816841F40A
:1011700080418160E1E719E0CA684968206800F0B1
:1011800027FD5021206806E0CA684968206800F001
:1011900030FD6021206800F071FCCEE7CA68496824
:1011A000206800F015FD40212068F4E72268014620
:1011B0001046F0E77047000010B586B004461421D1
:1011C0006846FFF73BF80E492068884216D10D4863
:1011D0000021026842F001020260006800F0010094
:1011E00005904FF4807000901220CDE9010101209C
:1011F000CDE9031069460448FFF750FA06B010BD68
:1012000000000140303802400000024070B5044642
:1012100090F83C0000260D4601280FD0012084F8EC
:101220003C006AB1042A1DD0082A2FD00C2A3FD0D6
:101230000126002084F83C00304670BD022070BDBD
:10124000206800F023FC2068816941F00801816179
:101250002068816921F004018161206881692A691F
:10126000114311E0206800F039FC2068816941F4E5
:10127000006181612068816921F480618161206859
:1012800081692A6941EA02218161D2E7206800F080
:1012900051FC2068C16941F00801C1612068C16941
:1012A00021F00401C1612068C1692A69114311E07C
:1012B000206800F06BFC2068C16941F40061C161E5
:1012C0002068C16921F48061C1612068C1692A690F
:1012D00041EA0221C161ACE710B5040003D094F8E3
:1012E0003D0010B107E0012010BD002084F83C0053
:1012F000204600F01EF8022084F83D00211D2068E1
:1013000000F0E4FA012084F8460084F83E0084F8F6
:101310003F0084F8400084F8410084F8420084F8DB
:10132000430084F8440084F8450084F83D00002020
:1013300010BD704700F0F8BC704700002DE9F04187
:1013400017460D0004464FF000060CD0042D11D0B6
:10135000082D16D094F84100022819D094F84100C5
:10136000012818D07BE094F83E00022810D094F8B1
:101370003E00F5E794F83F00022809D094F83F00BA
:10138000EEE794F84000022802D094F84000E7E726
:101390000220BDE8F0810FB9002B60D14849494ACD
:1013A000DFF824C102204DB1042D18D0082D27D01C
:1013B00084F841000C2D44D001267FE084F83E00E3
:1013C000606AC163606A39460264606AC0F84CC0F2
:1013D0002268606A3432FFF717F988BB21E084F88D
:1013E0003F00A06AC163A06A39460264A06AC0F8DF
:1013F0004CC02268A06A3832FFF706F900BB15E03E
:1014000084F84000E06AC163E06A39460264E06A39
:10141000C0F84CC02268E06A3C32FFF7F5F878B9B2
:1014200009E02068C16841F400711EE02068C168CD
:1014300041F4806119E02068C16841F4006114E062
:101440000DE0206BC163206B39460264206BC0F84D
:101450004CC02268206B4032FFF7D6F808B101205B
:1014600097E72068C16841F48051C1600122294694
:10147000206800F077FA15492068884203D1426C51
:1014800042F400424264206888420ED0B0F1804F9E
:101490000BD00F49884208D00E49884205D00E492A
:1014A000884202D00D49884204D1816801F00701C9
:1014B000062903D0016841F001010160304668E768
:1014C0007F190008DD190008151A00080000014006
:1014D0000004004000080040000C004000400140B3
:1014E00070B50D0004464FF0000607D0042D0CD057
:1014F000082D11D00C2D16D0012645E02068C168BA
:1015000021F40071C160606A13E02068C16821F4B1
:101510008061C160A06A0CE02068C16821F40061AC
:10152000C160E06A05E02068C16821F48051C160B3
:10153000206BFEF71CFF00222946206800F012FAFB
:10154000174B41F2111120688A10984209D1036AA1
:101550000B4206D1036A134203D1436C23F40043C8
:1015600043642068036A0B4206D1016A114203D129
:10157000016821F00101016001203DB1042D08D076
:10158000082D09D084F84100304670BD84F83E0033
:10159000FAE784F83F00F7E784F84000F4E700003A
:1015A0000000014070B5040004D094F83D0000250F
:1015B00010B106E0012070BD84F83C50204600F0D8
:1015C00023F8242084F83D002068C16821F40051EC
:1015D000C160204600F020FB2068016921F49041A1
:1015E00001612068416921F02A0141612068C168D8
:1015F00041F40051C1602564202084F83D0084F846
:101600003E00002070BD000010B586B004461421D5
:101610006846FEF713FE14492068884221D113481A
:101620000021026842F010020260006800F0100021
:1016300005900E481438026842F00102026000680A
:1016400000F0010005904FF4C06000900220CDE949
:101650000101032003900720049069460448FFF726
:101660001DF806B010BD00000010014044380240D3
:1016700000000240FEE70000094808B5016841F497
:10168000800101600068002200F480000090114693
:101690003920FFF761F9BDE808403920FFF74EB95E
:1016A00030380240094808B5016841F08001016006
:1016B000016801F080010091016841F001010160C1
:1016C000006800F00100009008BD000030380240C2
:1016D00010B596B000240F941094119412941394A2
:1016E0001C2108A81494FEF7A9FD20216846FEF7E6
:1016F000A5FD27482549C0E900146921C0E9024138
:10170000046144618461FFF777FC08B1FEF72DFEA8
:101710004FF480500F900FA91D48FFF7DDFC08B172
:10172000FEF723FE1A48FFF7D7FD08B1FEF71DFEAE
:10173000139413A916481494FFF720FC08B1FEF780
:1017400014FE6020CDE908040A940B940C940D94C7
:10175000002208A90E480E94FFF758FD08B1FEF7C5
:1017600004FE00944FF40050CDE90440029401942B
:101770000394694606480794FFF7D6FB08B1FEF7C5
:10178000F4FD0348FFF718FD16B010BD000001403E
:101790003C0000201FB500211148009101910291E9
:1017A0000E4A039102605322C0E901214FF6FF72F5
:1017B000C0E9032180218161FFF71EFC08B1FEF71B
:1017C000D4FD4FF48050009069460548FFF784FC33
:1017D000002801D0FEF7C9FD1FBD000000400140F8
:1017E000840000200C4810B50A4901604FF4E13133
:1017F0004160002181600C22C160C0E90412816156
:10180000C161FFF7CFFE002803D0BDE81040FEF70E
:10181000ACBD10BD001001402C010020FEE7FEE72A
:1018200070477047FFF730B830B593B03021684645
:10183000FEF704FD14210CA8FEF700FD1D4800254D
:10184000016841F080510160006800F08050119003
:101850001948016821F4404141F4004101600068E9
:10186000022400F4404011900120009000040190F7
:101870008001CDE9064019200890A820CDE909048F
:1018800004200B906846FFF785F908B172B6FEE7B1
:101890000CA90F2081E831004FF48050CDE90F05ED
:1018A00002210CA8FFF78AF8002801D072B6FEE7E3
:1018B00013B030BD4038024000700040024801685B
:1018C00041F470010160704788ED00E0F0B50268F6
:1018D0001D4B1E4C9F031E4D1E4E984207D0B84212
:1018E00005D0A04203D0A84201D0B04204D122F0DA
:1018F000700C4A6842EA0C02984210D0B8420ED0EE
:10190000A0420CD0A8420AD0B04208D0124CA0424B
:1019100005D0124CA04202D0114CA04203D122F4B7
:101920004074CA6822434C6922F08002224302605C
:101930008A68C2620A688262984201D109690163B9
:1019400001214161F0BD00000000014000040040A1
:1019500000080040000C00400040014000440140ED
:101960000048014010B501F01F030121046A9940AD
:101970008C430462016A9A401143016210BD10B5A4
:10198000846B0121626A824205D12177C069F8B96E
:1019900084F83E101CE0A26A824206D1022222771D
:1019A000C069A8B984F83F1012E0E26A824206D109
:1019B00004222277C06958B984F8401008E0226BED
:1019C000824205D108222277C06908B984F8411003
:1019D0002046FFF7AFFC0020207710BD10B5846BC8
:1019E000616A814201D101200DE0A16A814201D1E9
:1019F000022008E0E16A814201D1042003E0216B6A
:101A0000814201D1082020772046FFF795FC002075
:101A1000207710BD10B5846B0121626A824203D128
:101A2000217784F83E1019E0A26A824204D1022094
:101A3000207784F83F1011E0E26A824204D104204A
:101A4000207784F8401009E0226B824204D10820FC
:101A5000207784F8411001E084F83D102046FFF71C
:101A6000A9FB0020207710BD10B5846842EA03224C
:101A700024F47F440A432243826010BD826822F02E
:101A800070020A4342F007018160704730B5026A74
:101A900022F001020262026A4368846924F073053D
:101AA0000C682C4322F002058A682A430A4DA8429A
:101AB0000BD122F00805CA6823F440732A434D690C
:101AC00022F004021D438B692B4343608461496803
:101AD0004163026230BD00000000014030B5026A7F
:101AE00022F010020262026A436884690D6824F4DD
:101AF000E64444EA05248D6822F0200242EA0512F9
:101B00000B4DA8420ED1CD6822F0800242EA0512A8
:101B10004D6923F4406343EA85038D6922F0400256
:101B200043EA85034360846149688163026230BD92
:101B30000000014030B5026A22F480720262036A3A
:101B40004268C46923F4007324F073050C682C43C5
:101B50008D6843EA05230C4DA8420ED1CD6823F4CD
:101B6000006343EA05234D6922F4405242EA05121C
:101B70008D6923F4806342EA05124260C4614968BA
:101B8000C163036230BD00000000014030B5026A4D
:101B900022F480520262046A4268C3690D6823F429
:101BA000E64343EA05238D6824F4005444EA0534EF
:101BB000064DA84204D14D6922F4804242EA8512C2
:101BC0004260C36149680164046230BD00000140A5
:101BD00010B5036A046A24F001040462846924F0E5
:101BE000F00444EA021423F00A020A438461026208
:101BF00010BD10B5036A23F0100303628369046A01
:101C000023F4704343EA023224F0A00343EA0111B3
:101C10008261016210BD000070B504460068016970
:101C2000E26821F44051114301612169A068E26931
:101C300008436169114308432168CA6849F20C638B
:101C40009A430243CA6020684169A26921F4407145
:101C50001143416131492068884202D030498842AD
:101C600002D1FEF755FF01E0FEF742FFE2690023D3
:101C7000192164253226B2F5004F626828D0A0FBF6
:101C80000101930F9200FEF7A1FA0146B0FBF5F0B7
:101C90006FF01802504301EB800006EB0010B0FB20
:101CA000F5F000F0F002B1FBF5F002EB0012B1FB31
:101CB000F5F06FF01803584301EB800006EB0010BD
:101CC000B0FBF5F000F00F0021681044886070BD93
:101CD000A0FB010192185B41FEF778FA0146B0FBC8
:101CE000F5F00201B1FBF5F06FF01803584301EB7A
:101CF000800006EBC000B0FBF5F000F0F80002EB4E
:101D00004002B1FBF5F0584301EB800006EBC00048
:101D1000B0FBF5F000F00700D6E70000001001402E
:101D200000140140FEE7000070B51A4C206801283D
:101D300018D160680025082815D0401C6060A06894
:101D400004F10C064FF01903A0B1134A0021134807
:101D5000FFF7F4FA6068104956F82000643900F083
:101D600037F8A56070BD00210C486560FFF7B8FB2F
:101D7000256070BD084A0021643A0848FFF7DEFA82
:101D80006068054956F8200000F022F80120A060A4
:101D900070BD000010000020D40100203C00002095
:101DA00010B5F023074A00210748FFF7C7FA074894
:101DB00004490068C83900F00BF8044901200C39C7
:101DC000086010BD380200203C0000201C000020EC
:101DD000C0F30722C3B230B5C0F30740120442EA91
:101DE00000221A43002047242023150202D541F87F
:101DF000204001E041F820305200401C1828F4DB5C
:101E00000020086630BD0907090E002804DB00F138
:101E1000E02080F80014704700F00F0000F1E0208F
:101E200080F8141D704702E008C8121F08C1002A7C
:101E3000FAD170477047002001E001C1121F002A4B
:101E4000FBD17047FEF728FDFFF7EEFCFFF72AFCF9
:101E5000FFF7C8FCFFF710FCFFF73AFCFFF79AFC0E
:101E60004FF47A74FFF79CFF2046FEF705FCF9E774
:101E7000000610160006101600000000000000000A
:101E80000102030406070809000000000102030420
:101E9000B01E0008000000203C000000261E0008C4
:101EA000EC1E00083C000020BC090000361E0008A3
:101EB0000100000010000000000000000024F400F9
:101EC000000000000000000000000000FFFFFF0015
:101ED000FFFFFF00FFFFFF00000000000000000008
:0C1EE000000000000000000000000000F6
:040000050800019559
:00000001FF
